{"abi":[{"type":"constructor","inputs":[{"name":"_nft","type":"address","internalType":"contract OptionNFT"}],"stateMutability":"nonpayable"},{"type":"function","name":"createOption","inputs":[{"name":"underlyingToken","type":"address","internalType":"address"},{"name":"quoteToken","type":"address","internalType":"address"},{"name":"strike","type":"uint256","internalType":"uint256"},{"name":"size","type":"uint256","internalType":"uint256"},{"name":"expiry","type":"uint256","internalType":"uint256"},{"name":"isCall","type":"bool","internalType":"bool"},{"name":"collateralAmount","type":"uint256","internalType":"uint256"},{"name":"metadataURI","type":"string","internalType":"string"}],"outputs":[{"name":"tokenId","type":"uint256","internalType":"uint256"}],"stateMutability":"nonpayable"},{"type":"function","name":"createOptionFor","inputs":[{"name":"creator","type":"address","internalType":"address"},{"name":"underlyingToken","type":"address","internalType":"address"},{"name":"quoteToken","type":"address","internalType":"address"},{"name":"strike","type":"uint256","internalType":"uint256"},{"name":"size","type":"uint256","internalType":"uint256"},{"name":"expiry","type":"uint256","internalType":"uint256"},{"name":"isCall","type":"bool","internalType":"bool"},{"name":"collateralAmount","type":"uint256","internalType":"uint256"},{"name":"metadataURI","type":"string","internalType":"string"}],"outputs":[{"name":"tokenId","type":"uint256","internalType":"uint256"}],"stateMutability":"nonpayable"},{"type":"function","name":"exercise","inputs":[{"name":"optionId","type":"uint256","internalType":"uint256"}],"outputs":[],"stateMutability":"nonpayable"},{"type":"function","name":"nft","inputs":[],"outputs":[{"name":"","type":"address","internalType":"contract OptionNFT"}],"stateMutability":"view"},{"type":"function","name":"onERC721Received","inputs":[{"name":"","type":"address","internalType":"address"},{"name":"","type":"address","internalType":"address"},{"name":"","type":"uint256","internalType":"uint256"},{"name":"","type":"bytes","internalType":"bytes"}],"outputs":[{"name":"","type":"bytes4","internalType":"bytes4"}],"stateMutability":"pure"},{"type":"function","name":"optionHook","inputs":[],"outputs":[{"name":"","type":"address","internalType":"address"}],"stateMutability":"view"},{"type":"function","name":"options","inputs":[{"name":"","type":"uint256","internalType":"uint256"}],"outputs":[{"name":"id","type":"uint256","internalType":"uint256"},{"name":"creator","type":"address","internalType":"address"},{"name":"underlyingToken","type":"address","internalType":"address"},{"name":"quoteToken","type":"address","internalType":"address"},{"name":"strike","type":"uint256","internalType":"uint256"},{"name":"size","type":"uint256","internalType":"uint256"},{"name":"expiry","type":"uint256","internalType":"uint256"},{"name":"isCall","type":"bool","internalType":"bool"},{"name":"collateralAmount","type":"uint256","internalType":"uint256"},{"name":"exercised","type":"bool","internalType":"bool"},{"name":"active","type":"bool","internalType":"bool"}],"stateMutability":"view"},{"type":"function","name":"owner","inputs":[],"outputs":[{"name":"","type":"address","internalType":"address"}],"stateMutability":"view"},{"type":"function","name":"renounceOwnership","inputs":[],"outputs":[],"stateMutability":"nonpayable"},{"type":"function","name":"setOptionHook","inputs":[{"name":"hook","type":"address","internalType":"address"}],"outputs":[],"stateMutability":"nonpayable"},{"type":"function","name":"transferOption","inputs":[{"name":"optionId","type":"uint256","internalType":"uint256"},{"name":"to","type":"address","internalType":"address"}],"outputs":[],"stateMutability":"nonpayable"},{"type":"function","name":"transferOptionTo","inputs":[{"name":"optionId","type":"uint256","internalType":"uint256"},{"name":"to","type":"address","internalType":"address"}],"outputs":[],"stateMutability":"nonpayable"},{"type":"function","name":"transferOwnership","inputs":[{"name":"newOwner","type":"address","internalType":"address"}],"outputs":[],"stateMutability":"nonpayable"},{"type":"event","name":"OptionCreated","inputs":[{"name":"optionId","type":"uint256","indexed":true,"internalType":"uint256"},{"name":"creator","type":"address","indexed":true,"internalType":"address"}],"anonymous":false},{"type":"event","name":"OptionExercised","inputs":[{"name":"optionId","type":"uint256","indexed":true,"internalType":"uint256"},{"name":"exerciser","type":"address","indexed":true,"internalType":"address"}],"anonymous":false},{"type":"event","name":"OptionTransferred","inputs":[{"name":"optionId","type":"uint256","indexed":true,"internalType":"uint256"},{"name":"to","type":"address","indexed":true,"internalType":"address"}],"anonymous":false},{"type":"event","name":"OwnershipTransferred","inputs":[{"name":"previousOwner","type":"address","indexed":true,"internalType":"address"},{"name":"newOwner","type":"address","indexed":true,"internalType":"address"}],"anonymous":false},{"type":"error","name":"OwnableInvalidOwner","inputs":[{"name":"owner","type":"address","internalType":"address"}]},{"type":"error","name":"OwnableUnauthorizedAccount","inputs":[{"name":"account","type":"address","internalType":"address"}]},{"type":"error","name":"ReentrancyGuardReentrantCall","inputs":[]},{"type":"error","name":"SafeERC20FailedOperation","inputs":[{"name":"token","type":"address","internalType":"address"}]}],"bytecode":{"object":"0x6080346100c657601f610f7c38819003918201601f19168301916001600160401b038311848410176100ca578084926020946040528339810103126100c657516001600160a01b0390818116908190036100c65733156100ae575f5460018060a01b03199033828216175f55604051933391167f8be0079c531659141344cd1fd0a4f28419497f9722a3daafe3b4186f6b6457e05f80a3600180556002541617600255610e9d90816100df8239f35b604051631e4fbdf760e01b81525f6004820152602490fd5b5f80fd5b634e487b7160e01b5f52604160045260245ffdfe60806040526004361015610011575f80fd5b5f803560e01c806312a695ac14610b0b57806312cdc70014610ac6578063150b7a0214610a6e578063409e2205146109ba57806345d55b531461083557806347ccca021461080c5780635f9b09f4146107e3578063715018a61461078a5780638da5cb5b14610763578063b07f0a4114610478578063ba0368621461025e578063d871d973146101385763f2fde38b146100a9575f80fd5b34610135576020366003190112610135576100c2610c01565b6100ca610d01565b6001600160a01b0390811690811561011c575f54826bffffffffffffffffffffffff60a01b8216175f55167f8be0079c531659141344cd1fd0a4f28419497f9722a3daafe3b4186f6b6457e05f80a380f35b604051631e4fbdf760e01b815260048101849052602490fd5b80fd5b503461013557604036600319011261013557600435610155610beb565b61015d610d01565b610165610d01565b818352600460205260ff600960408520015460081c161561022c576002546001600160a01b03919084908316803b1561022857604051632142170760e11b81523060048201526001600160a01b0384166024820152604481018690529082908290606490829084905af1801561021d57610205575b505016907f7ffde880b387d609170c1211ee4e972b8f4b68d5d3dc1bfea330ebaa3384393a8380a380f35b61020e90610c45565b61021957835f6101da565b8380fd5b6040513d84823e3d90fd5b5080fd5b60405162461bcd60e51b815260206004820152600a6024820152696e6f742061637469766560b01b6044820152606490fd5b50346101355761012036600319011261013557610279610c01565b90610282610beb565b604435906001600160a01b03821682036104305760c435151560c43503610430576101043567ffffffffffffffff8111610219576102c4903690600401610c17565b600354909391906001600160a01b0316330361044757610320936020916102e9610d2c565b6102f64260a43511610c8f565b60018060a01b0360025416908760405180988195829463d0def52160e01b84523060048501610ccc565b03925af192831561043c578493610403575b5082845260046020818152604086208581556001810180546001600160a01b03998a166001600160a01b03199182168117909255600283018054978b169782169790971790965560038201805495909916949095169390931790965560643590820155608435600582015560a435600682015560078101805460ff191660ff60c43515151617905560099060e43560088201550161010061ffff19825416179055817f510ca2b3f14ad2212443ce4234f1889ca3f2184cead678709bcb9c2d55b9c1cd6040519480a3600180558152f35b9092506020813d602011610434575b8161041f60209383610c6d565b810103126104305751916020610332565b5f80fd5b3d9150610412565b6040513d86823e3d90fd5b60405162461bcd60e51b81526020600482015260096024820152686f6e6c7920686f6f6b60b81b6044820152606490fd5b5034610135576020908160031936011261013557600435610497610d2c565b808252600483526040822092600984019384549460ff8660081c16156107335760ff86166106fa57600682015442116106cb576002546040516331a9108f60e11b8152600481018690526001600160a01b03949093929181908590602490829089165afa9384156106c0578794610684575b50338585160361065357506001869761ffff979697191617905560ff6007820154165f146105f25761057b91836002600484015493610570670de0b6b3a764000061055a6005840197885490610d9a565b0484600384015416868660018601541691610d4f565b015416915491610dc1565b60025416803b1561022857818091602460405180948193630852cd8d60e31b83528860048401525af1801561021d576105de575b505033907f76b3900aee1539fba6bc0c92712c2959a1b89602c8a57aebbeff7c52bff1f1eb8380a36001805580f35b6105e790610c45565b61022857815f6105af565b61064e91836001816002850161064082825416956106196005890197885490833091610d4f565b670de0b6b3a764000061063260048a0154895490610d9a565b04908460038a015416610dc1565b541693015416905491610dc1565b61057b565b6064906040519062461bcd60e51b82526004820152600a6024820152693737ba103437b63232b960b11b6044820152fd5b9080945081813d83116106b9575b61069c8183610c6d565b810103126106b5575184811681036106b557925f610509565b8680fd5b503d610692565b6040513d89823e3d90fd5b60405162461bcd60e51b8152600481018490526007602482015266195e1c1a5c995960ca1b6044820152606490fd5b60405162461bcd60e51b8152600481018490526011602482015270185b1c9958591e48195e195c98da5cd959607a1b6044820152606490fd5b60405162461bcd60e51b8152600481018490526008602482015267696e61637469766560c01b6044820152606490fd5b5034610135578060031936011261013557546040516001600160a01b039091168152602090f35b50346101355780600319360112610135576107a3610d01565b5f80546001600160a01b0319811682556001600160a01b03167f8be0079c531659141344cd1fd0a4f28419497f9722a3daafe3b4186f6b6457e08280a380f35b50346101355780600319360112610135576003546040516001600160a01b039091168152602090f35b50346101355780600319360112610135576002546040516001600160a01b039091168152602090f35b50346101355761010036600319011261013557610850610c01565b90610859610beb565b916084359260a435151560a435036104305760e43567ffffffffffffffff8111610219579060206108926108a694933690600401610c17565b9061089b610d2c565b6102f6428911610c8f565b03925af192831561043c578493610983575b508284526004602081815260408620858155600181018054336001600160a01b0319918216179091556002820180546001600160a01b0397881690831617905560038201805495909616941693909317909355604435908201556064356005820155600681019490945560078401805460ff191660ff60a4351515161790559260099060c43560088201550161010061ffff1982541617905560405191817f510ca2b3f14ad2212443ce4234f1889ca3f2184cead678709bcb9c2d55b9c1cd339280a3600180558152f35b919092506020823d6020116109b2575b816109a060209383610c6d565b810103126104305790519160206108b8565b3d9150610993565b503461013557602036600319011261013557604061016091600435815260046020522060ff81549160018060a01b0390816001820154169180600283015416906003830154166004830154600584015490600685015492876007870154169460096008880154970154976040519a8b5260208b015260408a01526060890152608088015260a087015260c0860152151560e0850152610100840152818116151561012084015260081c161515610140820152f35b503461013557608036600319011261013557610a88610c01565b50610a91610beb565b5060643567ffffffffffffffff811161022857610ab2903690600401610c17565b5050604051630a85bd0160e11b8152602090f35b503461013557602036600319011261013557610ae0610c01565b610ae8610d01565b60018060a01b03166bffffffffffffffffffffffff60a01b600354161760035580f35b503461043057604036600319011261043057600435610b28610beb565b610b30610d01565b815f52600460205260ff600960405f20015460081c161561022c576002546001600160a01b0391908216803b1561043057604051632142170760e11b81523060048201526001600160a01b038316602482015260448101859052905f908290606490829084905af18015610be057610bcd575b5016907f7ffde880b387d609170c1211ee4e972b8f4b68d5d3dc1bfea330ebaa3384393a8380a380f35b610bd8919450610c45565b5f925f610ba3565b6040513d5f823e3d90fd5b602435906001600160a01b038216820361043057565b600435906001600160a01b038216820361043057565b9181601f840112156104305782359167ffffffffffffffff8311610430576020838186019501011161043057565b67ffffffffffffffff8111610c5957604052565b634e487b7160e01b5f52604160045260245ffd5b90601f8019910116810190811067ffffffffffffffff821117610c5957604052565b15610c9657565b60405162461bcd60e51b815260206004820152600e60248201526d195e1c1a5c9e481a5b881c185cdd60921b6044820152606490fd5b9192606093819260018060a01b0316845260406020850152816040850152848401375f828201840152601f01601f1916010190565b5f546001600160a01b03163303610d1457565b60405163118cdaa760e01b8152336004820152602490fd5b600260015414610d3d576002600155565b604051633ee5aeb560e01b8152600490fd5b6040516323b872dd60e01b60208201526001600160a01b039283166024820152929091166044830152606480830193909352918152610d9891610d93608483610c6d565b610e0d565b565b81810292918115918404141715610dad57565b634e487b7160e01b5f52601160045260245ffd5b60405163a9059cbb60e01b60208201526001600160a01b039092166024830152604480830193909352918152608081019167ffffffffffffffff831182841017610c5957610d98926040525b905f602091828151910182855af115610be0575f513d610e5e57506001600160a01b0381163b155b610e3c5750565b604051635274afe760e01b81526001600160a01b039091166004820152602490fd5b60011415610e3556fea2646970667358221220c275cca74e07ec049afd3db008973f78f95a75a4a53e55ec4b13023219b58df064736f6c63430008170033","linkReferences":{}},"methodIdentifiers":{"createOption(address,address,uint256,uint256,uint256,bool,uint256,string)":"45d55b53","createOptionFor(address,address,address,uint256,uint256,uint256,bool,uint256,string)":"ba036862","exercise(uint256)":"b07f0a41","nft()":"47ccca02","onERC721Received(address,address,uint256,bytes)":"150b7a02","optionHook()":"5f9b09f4","options(uint256)":"409e2205","owner()":"8da5cb5b","renounceOwnership()":"715018a6","setOptionHook(address)":"12cdc700","transferOption(uint256,address)":"12a695ac","transferOptionTo(uint256,address)":"d871d973","transferOwnership(address)":"f2fde38b"},"id":60}