{"abi":[{"type":"constructor","inputs":[{"name":"_engine","type":"address","internalType":"contract OptionEngine"}],"stateMutability":"nonpayable"},{"type":"function","name":"computePremiumOnchain","inputs":[{"name":"optionId","type":"uint256","internalType":"uint256"}],"outputs":[{"name":"","type":"uint256","internalType":"uint256"}],"stateMutability":"view"},{"type":"function","name":"engine","inputs":[],"outputs":[{"name":"","type":"address","internalType":"contract OptionEngine"}],"stateMutability":"view"},{"type":"function","name":"optionCreatedForOrder","inputs":[{"name":"","type":"bytes32","internalType":"bytes32"}],"outputs":[{"name":"","type":"uint256","internalType":"uint256"}],"stateMutability":"view"},{"type":"function","name":"orderMixinCaller","inputs":[],"outputs":[{"name":"","type":"address","internalType":"address"}],"stateMutability":"view"},{"type":"function","name":"owner","inputs":[],"outputs":[{"name":"","type":"address","internalType":"address"}],"stateMutability":"view"},{"type":"function","name":"postInteraction","inputs":[{"name":"","type":"tuple","internalType":"struct IOrderMixin.Order","components":[{"name":"salt","type":"uint256","internalType":"uint256"},{"name":"maker","type":"uint256","internalType":"Address"},{"name":"receiver","type":"uint256","internalType":"Address"},{"name":"makerAsset","type":"uint256","internalType":"Address"},{"name":"takerAsset","type":"uint256","internalType":"Address"},{"name":"makingAmount","type":"uint256","internalType":"uint256"},{"name":"takingAmount","type":"uint256","internalType":"uint256"},{"name":"makerTraits","type":"uint256","internalType":"MakerTraits"}]},{"name":"","type":"bytes","internalType":"bytes"},{"name":"orderHash","type":"bytes32","internalType":"bytes32"},{"name":"taker","type":"address","internalType":"address"},{"name":"","type":"uint256","internalType":"uint256"},{"name":"","type":"uint256","internalType":"uint256"},{"name":"","type":"uint256","internalType":"uint256"},{"name":"","type":"bytes","internalType":"bytes"}],"outputs":[],"stateMutability":"nonpayable"},{"type":"function","name":"preInteraction","inputs":[{"name":"","type":"tuple","internalType":"struct IOrderMixin.Order","components":[{"name":"salt","type":"uint256","internalType":"uint256"},{"name":"maker","type":"uint256","internalType":"Address"},{"name":"receiver","type":"uint256","internalType":"Address"},{"name":"makerAsset","type":"uint256","internalType":"Address"},{"name":"takerAsset","type":"uint256","internalType":"Address"},{"name":"makingAmount","type":"uint256","internalType":"uint256"},{"name":"takingAmount","type":"uint256","internalType":"uint256"},{"name":"makerTraits","type":"uint256","internalType":"MakerTraits"}]},{"name":"extension","type":"bytes","internalType":"bytes"},{"name":"orderHash","type":"bytes32","internalType":"bytes32"},{"name":"","type":"address","internalType":"address"},{"name":"","type":"uint256","internalType":"uint256"},{"name":"","type":"uint256","internalType":"uint256"},{"name":"","type":"uint256","internalType":"uint256"},{"name":"data","type":"bytes","internalType":"bytes"}],"outputs":[],"stateMutability":"nonpayable"},{"type":"function","name":"renounceOwnership","inputs":[],"outputs":[],"stateMutability":"nonpayable"},{"type":"function","name":"setOrderMixinCaller","inputs":[{"name":"addr","type":"address","internalType":"address"}],"outputs":[],"stateMutability":"nonpayable"},{"type":"function","name":"transferOwnership","inputs":[{"name":"newOwner","type":"address","internalType":"address"}],"outputs":[],"stateMutability":"nonpayable"},{"type":"event","name":"OwnershipTransferred","inputs":[{"name":"previousOwner","type":"address","indexed":true,"internalType":"address"},{"name":"newOwner","type":"address","indexed":true,"internalType":"address"}],"anonymous":false},{"type":"event","name":"PostInterCalled","inputs":[{"name":"caller","type":"address","indexed":false,"internalType":"address"},{"name":"optionId","type":"uint256","indexed":false,"internalType":"uint256"},{"name":"action","type":"uint8","indexed":false,"internalType":"uint8"},{"name":"taker","type":"address","indexed":false,"internalType":"address"}],"anonymous":false},{"type":"event","name":"PreInterCalled","inputs":[{"name":"caller","type":"address","indexed":false,"internalType":"address"},{"name":"optionId","type":"uint256","indexed":false,"internalType":"uint256"},{"name":"action","type":"uint8","indexed":false,"internalType":"uint8"},{"name":"premium","type":"uint256","indexed":false,"internalType":"uint256"}],"anonymous":false},{"type":"error","name":"OwnableInvalidOwner","inputs":[{"name":"owner","type":"address","internalType":"address"}]},{"type":"error","name":"OwnableUnauthorizedAccount","inputs":[{"name":"account","type":"address","internalType":"address"}]},{"type":"error","name":"ReentrancyGuardReentrantCall","inputs":[]}],"bytecode":{"object":"0x6080346100c657601f610b7838819003918201601f19168301916001600160401b038311848410176100ca578084926020946040528339810103126100c657516001600160a01b0390818116908190036100c65733156100ae575f5460018060a01b03199033828216175f55604051933391167f8be0079c531659141344cd1fd0a4f28419497f9722a3daafe3b4186f6b6457e05f80a3600180556002541617600255610a9990816100df8239f35b604051631e4fbdf760e01b81525f6004820152602490fd5b5f80fd5b634e487b7160e01b5f52604160045260245ffdfe60806040818152600480361015610014575f80fd5b5f925f3560e01c90816308abb7ab146103f3575080630986bdd5146103d0578063443074d814610391578063462ebde21461021d578063715018a6146101c457806373fc8f161461019a5780638da5cb5b14610172578063bc15800c1461014b578063c9d4623f1461011e5763f2fde38b1461008e575f80fd5b3461011a57602036600319011261011a576100a7610445565b906100b0610a17565b6001600160a01b039182169283156101045750505f54826bffffffffffffffffffffffff60a01b8216175f55167f8be0079c531659141344cd1fd0a4f28419497f9722a3daafe3b4186f6b6457e05f80a380f35b51631e4fbdf760e01b8152908101849052602490fd5b8280fd5b50503461014757816003193601126101475760025490516001600160a01b039091168152602090f35b5080fd5b503461011a57602036600319011261011a5760209282913581526003845220549051908152f35b505034610147578160031936011261014757905490516001600160a01b039091168152602090f35b5091346101c15760203660031901126101c157506101ba60209235610894565b9051908152f35b80fd5b83346101c157806003193601126101c1576101dd610a17565b5f80546001600160a01b0319811682556001600160a01b03167f8be0079c531659141344cd1fd0a4f28419497f9722a3daafe3b4186f6b6457e08280a380f35b5090346103455761022d3661046f565b505050505094935091505060018060a01b038085541680610380575b50815f526003602052825f205494851561034957816002541694853b15610345575f92604484928751958693849263d871d97360e01b84528c8885015216998a60248401525af1801561033b576102e8575b867f303bbca859f437a32d52f4a6f9ec4f670c0d3244d8f91360a4cb3c1c4db3b331608088886001898987526003602052868181205580519333855260208501528301526060820152a180f35b9091955067ffffffffffffffff8211610328575081525f9360017f303bbca859f437a32d52f4a6f9ec4f670c0d3244d8f91360a4cb3c1c4db3b33161029b565b604190634e487b7160e01b5f525260245ffd5b84513d5f823e3d90fd5b5f80fd5b606490602085519162461bcd60e51b835282015260116024820152701b9bc81bdc1d1a5bdb8818dc99585d1959607a1b6044820152fd5b61038b9033146104f1565b5f610249565b5034610345576020366003190112610345576103ab610445565b6103b3610a17565b81546001600160a01b0319166001600160a01b0391909116179055005b34610345576103f16103e13661046f565b985096935050505091909161052d565b005b905034610345575f3660031901126103455790546001600160a01b03168152602090f35b9181601f840112156103455782359167ffffffffffffffff8311610345576020838186019501011161034557565b600435906001600160a01b038216820361034557565b35906001600160a01b038216820361034557565b60031981016101e0811261034557610100136103455760049167ffffffffffffffff6101043581811161034557836104a991600401610417565b909390926101243592610144356001600160a01b03811681036103455792610164359261018435926101a435926101c435918211610345576104ed91600401610417565b9091565b156104f857565b60405162461bcd60e51b815260206004820152600d60248201526c3ab730baba341031b0b63632b960991b6044820152606490fd5b6004546001600160a01b03949261054e929091861680610861575b506109e6565b5050815f5260209260038452604094855f205415155f146105bc57505050907f3ba855728d46c6cde263649f3f76f4b90e1b5866187b4f8f6b204a9d10a422b4926080925f52600382525f81812054916105a783610894565b928151943386528501528301526060820152a1565b82019061014083830312610345576105d585840161045b565b926105e187820161045b565b916105ee6060830161045b565b9060e0830135918215158093036103455761012094858501359767ffffffffffffffff988981116103455786019088601f83011215610345578135998a1161084d578c5199601f1999610648601f83018c168f018d610872565b818c528d8285010111610345578c815f928d83808b98019101378c0101521685356107ff5780156107cb5795919461010091999894848d97818e9b976002541699519d8e9b635d01b43160e11b8d5260048d01521660248b01521660448901526080820135606489015260a0820135608489015260c082013560a489015260c4880152013560e4860152610104850152815191826101248601525f5b8381106107b25750508391825f92601f6101449385858286010152011681010301925af191821561033b575f92610761575b507f3ba855728d46c6cde263649f3f76f4b90e1b5866187b4f8f6b204a9d10a422b493608093925f9283526003845280828420558151933385528401528201526103e86060820152a1565b909280925081813d83116107ab575b61077a8183610872565b81010312610345575190917f3ba855728d46c6cde263649f3f76f4b90e1b5866187b4f8f6b204a9d10a422b4610716565b503d610770565b81810187015189820161014401528996899650016106e4565b8b5162461bcd60e51b8152600481018c9052600d60248201526c34b73b30b634b21036b0b5b2b960991b6044820152606490fd5b8b5162461bcd60e51b8152600481018c9052602160248201527f6578706563746564207a65726f206f7074696f6e496420666f722063726561746044820152606560f81b6064820152608490fd5b634e487b7160e01b5f52604160045260245ffd5b61086c9033146104f1565b5f610548565b90601f8019910116810190811067ffffffffffffffff82111761084d57604052565b60025460405163409e220560e01b81526004810192909252610160908190839060249082906001600160a01b03165afa9182156109db575f905f925f94610948575b50508181029181830414901517156109295760649004904281111561093d574281039081116109295762015180905b0464e8d4a51000908181029181830414901517156109295781018091116109295790565b634e487b7160e01b5f52601160045260245ffd5b50620151805f610905565b925092505081813d83116109d4575b6109618183610872565b810103126103455761097560208201610a42565b5061098260408201610a42565b5061098f60608201610a42565b5060808101519060a0810151916109c961014060c0840151936109b460e08201610a56565b506109c26101208201610a56565b5001610a56565b509190915f806108d6565b503d610957565b6040513d5f823e3d90fd5b91909160208310610a0f578260201161034557359182159081610a07575090565b602091501190565b505f91508190565b5f546001600160a01b03163303610a2a57565b60405163118cdaa760e01b8152336004820152602490fd5b51906001600160a01b038216820361034557565b519081151582036103455756fea26469706673582212203a9bd29221aafece13e8c6c0f3d59f962c968a172f20b060a6e8ed1969fa2b5664736f6c63430008170033","linkReferences":{}},"methodIdentifiers":{"computePremiumOnchain(uint256)":"73fc8f16","engine()":"c9d4623f","optionCreatedForOrder(bytes32)":"bc15800c","orderMixinCaller()":"08abb7ab","owner()":"8da5cb5b","postInteraction((uint256,uint256,uint256,uint256,uint256,uint256,uint256,uint256),bytes,bytes32,address,uint256,uint256,uint256,bytes)":"462ebde2","preInteraction((uint256,uint256,uint256,uint256,uint256,uint256,uint256,uint256),bytes,bytes32,address,uint256,uint256,uint256,bytes)":"0986bdd5","renounceOwnership()":"715018a6","setOrderMixinCaller(address)":"443074d8","transferOwnership(address)":"f2fde38b"},"id":61}