{"abi":[{"type":"constructor","inputs":[{"name":"_name","type":"string","internalType":"string"},{"name":"_symbol","type":"string","internalType":"string"},{"name":"_decimals","type":"uint8","internalType":"uint8"}],"stateMutability":"nonpayable"},{"type":"function","name":"allowance","inputs":[{"name":"","type":"address","internalType":"address"},{"name":"","type":"address","internalType":"address"}],"outputs":[{"name":"","type":"uint256","internalType":"uint256"}],"stateMutability":"view"},{"type":"function","name":"approve","inputs":[{"name":"spender","type":"address","internalType":"address"},{"name":"amount","type":"uint256","internalType":"uint256"}],"outputs":[{"name":"","type":"bool","internalType":"bool"}],"stateMutability":"nonpayable"},{"type":"function","name":"balanceOf","inputs":[{"name":"","type":"address","internalType":"address"}],"outputs":[{"name":"","type":"uint256","internalType":"uint256"}],"stateMutability":"view"},{"type":"function","name":"decimals","inputs":[],"outputs":[{"name":"","type":"uint8","internalType":"uint8"}],"stateMutability":"view"},{"type":"function","name":"mint","inputs":[{"name":"to","type":"address","internalType":"address"},{"name":"amount","type":"uint256","internalType":"uint256"}],"outputs":[],"stateMutability":"nonpayable"},{"type":"function","name":"name","inputs":[],"outputs":[{"name":"","type":"string","internalType":"string"}],"stateMutability":"view"},{"type":"function","name":"symbol","inputs":[],"outputs":[{"name":"","type":"string","internalType":"string"}],"stateMutability":"view"},{"type":"function","name":"transfer","inputs":[{"name":"to","type":"address","internalType":"address"},{"name":"amount","type":"uint256","internalType":"uint256"}],"outputs":[{"name":"","type":"bool","internalType":"bool"}],"stateMutability":"nonpayable"},{"type":"function","name":"transferFrom","inputs":[{"name":"from","type":"address","internalType":"address"},{"name":"to","type":"address","internalType":"address"},{"name":"amount","type":"uint256","internalType":"uint256"}],"outputs":[{"name":"","type":"bool","internalType":"bool"}],"stateMutability":"nonpayable"},{"type":"event","name":"Approval","inputs":[{"name":"owner","type":"address","indexed":true,"internalType":"address"},{"name":"spender","type":"address","indexed":true,"internalType":"address"},{"name":"value","type":"uint256","indexed":false,"internalType":"uint256"}],"anonymous":false},{"type":"event","name":"Transfer","inputs":[{"name":"from","type":"address","indexed":true,"internalType":"address"},{"name":"to","type":"address","indexed":true,"internalType":"address"},{"name":"value","type":"uint256","indexed":false,"internalType":"uint256"}],"anonymous":false}],"bytecode":{"object":"0x6080604052346200030b5762000a93803803806200001d816200030f565b92833981016060828203126200030b5781516001600160401b03908181116200030b57826200004e91850162000335565b90602092838501518281116200030b576040916200006e91870162000335565b9401519260ff84168094036200030b5782519082821162000229575f54916001948584811c9416801562000300575b838510146200020a578190601f94858111620002ad575b50839085831160011462000249575f926200023d575b50505f19600383901b1c191690851b175f555b8551928311620002295783548481811c911680156200021e575b828210146200020a57828111620001c2575b50809183116001146200015d5750819293945f9262000151575b50505f19600383901b1c191690821b1790555b60ff1960025416176002556040516106ed9081620003a68239f35b015190505f8062000123565b90601f19831695845f52825f20925f905b888210620001aa575050838596971062000191575b505050811b01905562000136565b01515f1960f88460031b161c191690555f808062000183565b8087859682949686015181550195019301906200016e565b845f52815f208380860160051c82019284871062000200575b0160051c019085905b828110620001f457505062000109565b5f8155018590620001e4565b92508192620001db565b634e487b7160e01b5f52602260045260245ffd5b90607f1690620000f7565b634e487b7160e01b5f52604160045260245ffd5b015190505f80620000ca565b90879350601f198316915f8052855f20925f5b878282106200029657505084116200027d575b505050811b015f55620000dd565b01515f1960f88460031b161c191690555f80806200026f565b8385015186558b979095019493840193016200025c565b9091505f8052835f208580850160051c820192868610620002f6575b918991869594930160051c01915b828110620002e7575050620000b4565b5f8155859450899101620002d7565b92508192620002c9565b93607f16936200009d565b5f80fd5b6040519190601f01601f191682016001600160401b038111838210176200022957604052565b919080601f840112156200030b5782516001600160401b03811162000229576020906200036b601f8201601f191683016200030f565b928184528282870101116200030b575f5b818110620003915750825f9394955001015290565b85810183015184820184015282016200037c56fe6080604081815260049182361015610015575f80fd5b5f3560e01c90816306fdde031461053f57508063095ea7b3146104d157806323b872dd1461037d578063313ce5671461035c57806340c10f19146102f457806370a08231146102bd57806395d89b411461019b578063a9059cbb146100cf5763dd62ed3e14610082575f80fd5b346100cb57806003193601126100cb5760209161009d61065d565b6100a5610673565b6001600160a01b039182165f908152928552838320911682528352819020549051908152f35b5f80fd5b50346100cb57806003193601126100cb576100e861065d565b60243590335f526020936003855282845f2054106101695750335f5260038452825f20610116838254610689565b905560018060a01b031690815f5260038452825f206101368282546106aa565b905582519081527fddf252ad1be2c89b69c2b068fc378daa952ba7f163c4a11628f55a4df523b3ef843392a35160018152f35b835162461bcd60e51b8152908101859052600c60248201526b1a5b9cdd59999a58da595b9d60a21b6044820152606490fd5b50346100cb575f3660031901126100cb578051905f60018054908160011c90600183169283156102b3575b60209384841081146102a057838852908115610284575060011461022e575b505050829003601f01601f191682019267ffffffffffffffff84118385101761021b5750829182610217925282610616565b0390f35b604190634e487b7160e01b5f525260245ffd5b60015f908152929350837fb10e2d527612073b26eecdfd717e6a320cf44b4afac2b0732d9fcbe2b7fa0cf65b83851061027057505050508301015f80806101e5565b80548886018301529301928490820161025a565b60ff1916878501525050151560051b84010190505f80806101e5565b602289634e487b7160e01b5f525260245ffd5b91607f16916101c6565b50346100cb5760203660031901126100cb576020906001600160a01b036102e261065d565b165f5260038252805f20549051908152f35b50346100cb57806003193601126100cb575f7fddf252ad1be2c89b69c2b068fc378daa952ba7f163c4a11628f55a4df523b3ef602061033161065d565b6024359060018060a01b031694858552600383528085206103538382546106aa565b905551908152a3005b50346100cb575f3660031901126100cb5760209060ff600254169051908152f35b50346100cb5760603660031901126100cb5761039761065d565b61039f610673565b604435916001600160a01b0390811691338303610464575b825f526020956003875284865f20541061042d57507fddf252ad1be2c89b69c2b068fc378daa952ba7f163c4a11628f55a4df523b3ef918691845f5260038352865f20610405878254610689565b90551693845f5260038252855f2061041e8282546106aa565b90558551908152a35160018152f35b855162461bcd60e51b81529081018790526011602482015270696e73756666696369656e742d66726f6d60781b6044820152606490fd5b825f5285602052845f20335f52602052845f20548481106104a2578461048991610689565b835f5286602052855f20335f52602052855f20556103b7565b855162461bcd60e51b81526020818901526009602482015268616c6c6f77616e636560b81b6044820152606490fd5b50346100cb57806003193601126100cb576020916104ed61065d565b9060243590335f528452825f209160018060a01b031691825f52845280835f205582519081527f8c5be1e5ebec7d5bd14f71427d1e84f3dd0314c0f7b2291e5b200ac8c7c3b925843392a35160018152f35b919050346100cb575f3660031901126100cb575f805460018160011c906001831692831561060c575b60209384841081146102a05783885290811561028457506001146105b857505050829003601f01601f191682019267ffffffffffffffff84118385101761021b5750829182610217925282610616565b5f808052929350837f290decd9548b62a8d60345a988386fc84ba6bc95484008f6362f93160ef3e5635b8385106105f857505050508301015f80806101e5565b8054888601830152930192849082016105e2565b91607f1691610568565b602080825282518183018190529093925f5b82811061064957505060409293505f838284010152601f8019910116010190565b818101860151848201604001528501610628565b600435906001600160a01b03821682036100cb57565b602435906001600160a01b03821682036100cb57565b9190820391821161069657565b634e487b7160e01b5f52601160045260245ffd5b919082018092116106965756fea2646970667358221220610b1ffa12e3d34db3b5face3bd6d2fdb64401ee63e57a6a56e36621e7ae2a3e64736f6c63430008170033","linkReferences":{}},"methodIdentifiers":{"allowance(address,address)":"dd62ed3e","approve(address,uint256)":"095ea7b3","balanceOf(address)":"70a08231","decimals()":"313ce567","mint(address,uint256)":"40c10f19","name()":"06fdde03","symbol()":"95d89b41","transfer(address,uint256)":"a9059cbb","transferFrom(address,address,uint256)":"23b872dd"},"id":59}