{"abi":[{"type":"constructor","inputs":[{"name":"name_","type":"string","internalType":"string"},{"name":"symbol_","type":"string","internalType":"string"}],"stateMutability":"nonpayable"},{"type":"function","name":"approve","inputs":[{"name":"to","type":"address","internalType":"address"},{"name":"tokenId","type":"uint256","internalType":"uint256"}],"outputs":[],"stateMutability":"nonpayable"},{"type":"function","name":"balanceOf","inputs":[{"name":"owner","type":"address","internalType":"address"}],"outputs":[{"name":"","type":"uint256","internalType":"uint256"}],"stateMutability":"view"},{"type":"function","name":"burn","inputs":[{"name":"tokenId","type":"uint256","internalType":"uint256"}],"outputs":[],"stateMutability":"nonpayable"},{"type":"function","name":"getApproved","inputs":[{"name":"tokenId","type":"uint256","internalType":"uint256"}],"outputs":[{"name":"","type":"address","internalType":"address"}],"stateMutability":"view"},{"type":"function","name":"isApprovedForAll","inputs":[{"name":"owner","type":"address","internalType":"address"},{"name":"operator","type":"address","internalType":"address"}],"outputs":[{"name":"","type":"bool","internalType":"bool"}],"stateMutability":"view"},{"type":"function","name":"mint","inputs":[{"name":"to","type":"address","internalType":"address"},{"name":"uri","type":"string","internalType":"string"}],"outputs":[{"name":"","type":"uint256","internalType":"uint256"}],"stateMutability":"nonpayable"},{"type":"function","name":"name","inputs":[],"outputs":[{"name":"","type":"string","internalType":"string"}],"stateMutability":"view"},{"type":"function","name":"owner","inputs":[],"outputs":[{"name":"","type":"address","internalType":"address"}],"stateMutability":"view"},{"type":"function","name":"ownerOf","inputs":[{"name":"tokenId","type":"uint256","internalType":"uint256"}],"outputs":[{"name":"","type":"address","internalType":"address"}],"stateMutability":"view"},{"type":"function","name":"renounceOwnership","inputs":[],"outputs":[],"stateMutability":"nonpayable"},{"type":"function","name":"safeTransferFrom","inputs":[{"name":"from","type":"address","internalType":"address"},{"name":"to","type":"address","internalType":"address"},{"name":"tokenId","type":"uint256","internalType":"uint256"}],"outputs":[],"stateMutability":"nonpayable"},{"type":"function","name":"safeTransferFrom","inputs":[{"name":"from","type":"address","internalType":"address"},{"name":"to","type":"address","internalType":"address"},{"name":"tokenId","type":"uint256","internalType":"uint256"},{"name":"data","type":"bytes","internalType":"bytes"}],"outputs":[],"stateMutability":"nonpayable"},{"type":"function","name":"setApprovalForAll","inputs":[{"name":"operator","type":"address","internalType":"address"},{"name":"approved","type":"bool","internalType":"bool"}],"outputs":[],"stateMutability":"nonpayable"},{"type":"function","name":"setURI","inputs":[{"name":"tokenId","type":"uint256","internalType":"uint256"},{"name":"uri","type":"string","internalType":"string"}],"outputs":[],"stateMutability":"nonpayable"},{"type":"function","name":"supportsInterface","inputs":[{"name":"interfaceId","type":"bytes4","internalType":"bytes4"}],"outputs":[{"name":"","type":"bool","internalType":"bool"}],"stateMutability":"view"},{"type":"function","name":"symbol","inputs":[],"outputs":[{"name":"","type":"string","internalType":"string"}],"stateMutability":"view"},{"type":"function","name":"tokenURI","inputs":[{"name":"tokenId","type":"uint256","internalType":"uint256"}],"outputs":[{"name":"","type":"string","internalType":"string"}],"stateMutability":"view"},{"type":"function","name":"transferFrom","inputs":[{"name":"from","type":"address","internalType":"address"},{"name":"to","type":"address","internalType":"address"},{"name":"tokenId","type":"uint256","internalType":"uint256"}],"outputs":[],"stateMutability":"nonpayable"},{"type":"function","name":"transferOwnership","inputs":[{"name":"newOwner","type":"address","internalType":"address"}],"outputs":[],"stateMutability":"nonpayable"},{"type":"event","name":"Approval","inputs":[{"name":"owner","type":"address","indexed":true,"internalType":"address"},{"name":"approved","type":"address","indexed":true,"internalType":"address"},{"name":"tokenId","type":"uint256","indexed":true,"internalType":"uint256"}],"anonymous":false},{"type":"event","name":"ApprovalForAll","inputs":[{"name":"owner","type":"address","indexed":true,"internalType":"address"},{"name":"operator","type":"address","indexed":true,"internalType":"address"},{"name":"approved","type":"bool","indexed":false,"internalType":"bool"}],"anonymous":false},{"type":"event","name":"OwnershipTransferred","inputs":[{"name":"previousOwner","type":"address","indexed":true,"internalType":"address"},{"name":"newOwner","type":"address","indexed":true,"internalType":"address"}],"anonymous":false},{"type":"event","name":"Transfer","inputs":[{"name":"from","type":"address","indexed":true,"internalType":"address"},{"name":"to","type":"address","indexed":true,"internalType":"address"},{"name":"tokenId","type":"uint256","indexed":true,"internalType":"uint256"}],"anonymous":false},{"type":"error","name":"ERC721IncorrectOwner","inputs":[{"name":"sender","type":"address","internalType":"address"},{"name":"tokenId","type":"uint256","internalType":"uint256"},{"name":"owner","type":"address","internalType":"address"}]},{"type":"error","name":"ERC721InsufficientApproval","inputs":[{"name":"operator","type":"address","internalType":"address"},{"name":"tokenId","type":"uint256","internalType":"uint256"}]},{"type":"error","name":"ERC721InvalidApprover","inputs":[{"name":"approver","type":"address","internalType":"address"}]},{"type":"error","name":"ERC721InvalidOperator","inputs":[{"name":"operator","type":"address","internalType":"address"}]},{"type":"error","name":"ERC721InvalidOwner","inputs":[{"name":"owner","type":"address","internalType":"address"}]},{"type":"error","name":"ERC721InvalidReceiver","inputs":[{"name":"receiver","type":"address","internalType":"address"}]},{"type":"error","name":"ERC721InvalidSender","inputs":[{"name":"sender","type":"address","internalType":"address"}]},{"type":"error","name":"ERC721NonexistentToken","inputs":[{"name":"tokenId","type":"uint256","internalType":"uint256"}]},{"type":"error","name":"OwnableInvalidOwner","inputs":[{"name":"owner","type":"address","internalType":"address"}]},{"type":"error","name":"OwnableUnauthorizedAccount","inputs":[{"name":"account","type":"address","internalType":"address"}]}],"bytecode":{"object":"0x6080604052346200034f57620016f9803803806200001d8162000353565b9283398101906040818303126200034f5780516001600160401b03908181116200034f57836200004f91840162000379565b91602093848201518381116200034f576200006b920162000379565b928251908282116200026d575f54916001948584811c9416801562000344575b838510146200024e578190601f94858111620002f1575b5083908583116001146200028d575f9262000281575b50505f19600383901b1c191690851b175f555b84519283116200026d5783548481811c9116801562000262575b828210146200024e5782811162000206575b5080918311600114620001a257508192935f9262000196575b50505f19600383901b1c191690821b1790555b33156200017e5760068054336001600160a01b03198216811790925560405191906001600160a01b03167f8be0079c531659141344cd1fd0a4f28419497f9722a3daafe3b4186f6b6457e05f80a361130f9081620003ea8239f35b604051631e4fbdf760e01b81525f6004820152602490fd5b015190505f8062000110565b90601f19831694845f52825f20925f905b878210620001ee57505083859610620001d5575b505050811b01905562000123565b01515f1960f88460031b161c191690555f8080620001c7565b808785968294968601518155019501930190620001b3565b845f52815f208380860160051c82019284871062000244575b0160051c019085905b82811062000238575050620000f7565b5f815501859062000228565b925081926200021f565b634e487b7160e01b5f52602260045260245ffd5b90607f1690620000e5565b634e487b7160e01b5f52604160045260245ffd5b015190505f80620000b8565b90879350601f198316915f8052855f20925f5b87828210620002da5750508411620002c1575b505050811b015f55620000cb565b01515f1960f88460031b161c191690555f8080620002b3565b8385015186558b97909501949384019301620002a0565b9091505f8052835f208580850160051c8201928686106200033a575b918991869594930160051c01915b8281106200032b575050620000a2565b5f81558594508991016200031b565b925081926200030d565b93607f16936200008b565b5f80fd5b6040519190601f01601f191682016001600160401b038111838210176200026d57604052565b919080601f840112156200034f5782516001600160401b0381116200026d57602090620003af601f8201601f1916830162000353565b928184528282870101116200034f575f5b818110620003d55750825f9394955001015290565b8581018301518482018401528201620003c056fe608060409080825260049081361015610016575f80fd5b5f3560e01c90816301ffc9a714610da05750806306fdde0314610cf3578063081812fc14610cba578063095ea7b314610bde57806323b872dd14610bc757806342842e0e14610b9957806342966c6814610a855780636352211e14610a5557806370a0823114610a00578063715018a6146109a5578063862440e2146108805780638da5cb5b1461085857806395d89b4114610784578063a22cb465146106e8578063b88d4fde14610655578063c87b56dd1461057a578063d0def521146101cb578063e985e9c51461017d5763f2fde38b146100f1575f80fd5b346101795760203660031901126101795761010a610e48565b90610113611163565b6001600160a01b03918216928315610163575050600654826001600160601b0360a01b821617600655167f8be0079c531659141344cd1fd0a4f28419497f9722a3daafe3b4186f6b6457e05f80a3005b905f6024925191631e4fbdf760e01b8352820152fd5b5f80fd5b8234610179578060031936011261017957602090610199610e48565b6101a1610e5e565b9060018060a01b038091165f5260058452825f2091165f52825260ff815f20541690519015158152f35b50346101795781600319360112610179576101e4610e48565b9167ffffffffffffffff602435818111610179576102059036908501610ea9565b9061020e611163565b6007545f198114610567576001019485600755845161022c81610ed7565b5f81526001600160a01b03888116989089156105515790899291895f528960209b8c92600284528b5f20541660028115159485610520575b835f52600381528d5f2060018154019055845f52528b5f20826001600160601b0360a01b8254161790557fddf252ad1be2c89b69c2b068fc378daa952ba7f163c4a11628f55a4df523b3ef5f80a461050a573b6103e8575b5050826102ce575b5050505051908152f35b855f5260088752845f209383116103d557506102ea8354610f45565b601f811161039c575b505f90601f83116001146103395761032292915f918361032e575b50508160011b915f199060031b1c19161790565b90555b5f8080806102c4565b013590505f8061030e565b601f19831691845f52875f20925f5b8982821061038657505090846001959493921061036d575b505050811b019055610325565b01355f19600384901b60f8161c191690555f8080610360565b6001849682939587013581550195019201610348565b6103c590845f52875f20601f850160051c8101918986106103cb575b601f0160051c0190611113565b5f6102f3565b90915081906103b8565b604190634e487b7160e01b5f525260245ffd5b86959391969794929751898180610427630a85bd0160e11b958683528d33908401525f60248401528a6044840152608060648401526084830190610e0a565b03815f8c5af15f91816104ca575b50610495575050505050503d5f1461048d573d9361045285610f29565b9461045f83519687610f07565b85523d5f8287013e5b8451948561048757505051633250574960e11b81529182015260249150fd5b85925001fd5b606093610468565b63ffffffff60e09994969998939597981b16036104b457505f806102bc565b8551633250574960e11b81529182015260249150fd5b9091508a81813d8311610503575b6104e28183610f07565b8101031261017957516001600160e01b03198116810361017957905f610435565b503d6104d8565b87516339e3563760e11b81525f81860152602490fd5b5f85815260046020526040812080546001600160a01b0319169055838152600382528e902080545f19019055610264565b8751633250574960e11b81525f81860152602490fd5b601186634e487b7160e01b5f525260245ffd5b5034610179576020908160031936011261017957355f5260088152815f2091805180935f9080546105aa81610f45565b91828552600191876001821691825f1461062e5750506001146105ee575b5050506105ea92916105db910385610f07565b51928284938452830190610e0a565b0390f35b8693505f92919252825f20915f925b82841061061657505050820101816105db6105ea6105c8565b8054848a0186015288955087949093019281016105fd565b60ff19168782015293151560051b860190930193508492506105db91506105ea90506105c8565b50903461017957608036600319011261017957610670610e48565b610678610e5e565b604435916064359467ffffffffffffffff86116101795736602387011215610179578501356106b26106a982610f29565b95519586610f07565b8085523660248288010111610179576020815f9260246106e6990183890137860101526106e0838383610f7d565b3361118f565b005b509034610179578060031936011261017957610702610e48565b9060243591821515809303610179576001600160a01b031692831561076f5750335f526005602052805f20835f52602052805f2060ff1981541660ff8416179055519081527f17307eab39ab6107e8899845ad3d59bd9653f200f220920489ca2b5937696c3160203392a3005b836024925191630b61174360e31b8352820152fd5b8234610179575f366003190112610179578051905f9082600192600154936107ab85610f45565b90818452602095866001821691825f146108365750506001146107db575b50506105ea92916105db910385610f07565b9085925060015f527fb10e2d527612073b26eecdfd717e6a320cf44b4afac2b0732d9fcbe2b7fa0cf6915f925b82841061081e57505050820101816105db6107c9565b8054848a018601528895508794909301928101610808565b60ff19168682015292151560051b850190920192508391506105db90506107c9565b8234610179575f3660031901126101795760065490516001600160a01b039091168152602090f35b503461017957816003193601126101795767ffffffffffffffff90602435828111610179576108b29036908301610ea9565b916108bb611163565b80355f52602094600886525f209383116103d557506108da8354610f45565b601f8111610977575b505f93601f83116001146109175750610913929382915f9261032e5750508160011b915f199060031b1c19161790565b9055005b90601f19831694845f52825f20925f905b87821061095f575050836001959610610946575b505050811b019055005b01355f19600384901b60f8161c191690555f808061093c565b80600184968294958701358155019501920190610928565b61099f90845f52855f20601f850160051c8101918786106103cb57601f0160051c0190611113565b5f6108e3565b34610179575f366003190112610179576109bd611163565b600680546001600160a01b031981169091555f906001600160a01b03167f8be0079c531659141344cd1fd0a4f28419497f9722a3daafe3b4186f6b6457e08280a3005b509034610179576020366003190112610179576001600160a01b03610a23610e48565b168015610a3f57602092505f5260038252805f20549051908152f35b81516322718ad960e21b81525f81850152602490fd5b50903461017957602036600319011261017957610a7460209235611129565b90516001600160a01b039091168152f35b509034610179576020918260031936011261017957803590610aa5611163565b5f82815260028552838120546001600160a01b031680159184918315610b68575b8282526002885286822080546001600160a01b03191690557fddf252ad1be2c89b69c2b068fc378daa952ba7f163c4a11628f55a4df523b3ef8280a4610b5357505f52600882525f20610b198154610f45565b80610b2057005b5f92601f8211600114610b3257505055005b8284528320918391610b4f90601f0160051c840160018501611113565b5555005b9151637e27328960e01b815291820152602490fd5b5f83815260046020526040902080546001600160a01b03191690558082526003885286822082198154019055610ac6565b8234610179576106e690610bac36610e74565b91925192610bb984610ed7565b5f84526106e0838383610f7d565b34610179576106e6610bd836610e74565b91610f7d565b509034610179578060031936011261017957610bf8610e48565b91602435610c0581611129565b33151580610ca7575b80610c80575b610c6a576001600160a01b039485169482918691167f8c5be1e5ebec7d5bd14f71427d1e84f3dd0314c0f7b2291e5b200ac8c7c3b9255f80a45f526020525f20906001600160601b0360a01b8254161790555f80f35b835163a9fbf51f60e01b81523381850152602490fd5b5060018060a01b0381165f526005602052835f20335f5260205260ff845f20541615610c14565b506001600160a01b038116331415610c0e565b509034610179576020366003190112610179578160209235610cdb81611129565b505f52825260018060a01b03815f2054169051908152f35b8234610179575f366003190112610179578051905f90825f5492610d1684610f45565b808352602094600190866001821691825f14610836575050600114610d475750506105ea92916105db910385610f07565b5f80805286935091907f290decd9548b62a8d60345a988386fc84ba6bc95484008f6362f93160ef3e5635b828410610d8857505050820101816105db6107c9565b8054848a018601528895508794909301928101610d72565b823461017957602036600319011261017957359063ffffffff60e01b8216809203610179576020916380ac58cd60e01b8114908115610df9575b8115610de8575b5015158152f35b6301ffc9a760e01b14905083610de1565b635b5e139f60e01b81149150610dda565b91908251928382525f5b848110610e34575050825f602080949584010152601f8019910116010190565b602081830181015184830182015201610e14565b600435906001600160a01b038216820361017957565b602435906001600160a01b038216820361017957565b6060906003190112610179576001600160a01b0390600435828116810361017957916024359081168103610179579060443590565b9181601f840112156101795782359167ffffffffffffffff8311610179576020838186019501011161017957565b6020810190811067ffffffffffffffff821117610ef357604052565b634e487b7160e01b5f52604160045260245ffd5b90601f8019910116810190811067ffffffffffffffff821117610ef357604052565b67ffffffffffffffff8111610ef357601f01601f191660200190565b90600182811c92168015610f73575b6020831014610f5f57565b634e487b7160e01b5f52602260045260245ffd5b91607f1691610f54565b6001600160a01b0391821692909183156110fb57815f52602092600284528260409583875f2054169533151580611069575b5060029087611038575b825f5260038152885f2060018154019055835f5252865f20816001600160601b0360a01b825416179055857fddf252ad1be2c89b69c2b068fc378daa952ba7f163c4a11628f55a4df523b3ef5f80a416928383036110175750505050565b6064945051926364283d7b60e01b8452600484015260248301526044820152fd5b5f84815260046020526040812080546001600160a01b03191690558881526003825289902080545f19019055610fb9565b91925090806110ba575b15611081579084915f610faf565b86858761109e576024915190637e27328960e01b82526004820152fd5b604491519063177e802f60e01b82523360048301526024820152fd5b5033861480156110df575b806110735750845f52600481523384885f20541614611073565b50855f5260058152865f20335f52815260ff875f2054166110c5565b604051633250574960e11b81525f6004820152602490fd5b81811061111e575050565b5f8155600101611113565b5f818152600260205260409020546001600160a01b031690811561114b575090565b60249060405190637e27328960e01b82526004820152fd5b6006546001600160a01b0316330361117757565b60405163118cdaa760e01b8152336004820152602490fd5b9293909193843b6111a2575b5050505050565b604051630a85bd0160e11b8082526001600160a01b0395861660048301529385166024820152604481019190915260806064820152602095949093169392908590829081906111f5906084830190610e0a565b03815f885af15f9181611299575b50611262575050503d5f1461125a573d9161121d83610f29565b9261122b6040519485610f07565b83523d5f8285013e5b8251928361125557604051633250574960e11b815260048101849052602490fd5b019050fd5b606091611234565b9193506001600160e01b03199091160361128157505f8080808061119b565b60249060405190633250574960e11b82526004820152fd5b9091508581813d83116112d2575b6112b18183610f07565b8101031261017957516001600160e01b03198116810361017957905f611203565b503d6112a756fea2646970667358221220f1495e097903959b0940b20de44ad265e25c73d944ead2e8fb8dcdc97dcd14cd64736f6c63430008170033","linkReferences":{}},"methodIdentifiers":{"approve(address,uint256)":"095ea7b3","balanceOf(address)":"70a08231","burn(uint256)":"42966c68","getApproved(uint256)":"081812fc","isApprovedForAll(address,address)":"e985e9c5","mint(address,string)":"d0def521","name()":"06fdde03","owner()":"8da5cb5b","ownerOf(uint256)":"6352211e","renounceOwnership()":"715018a6","safeTransferFrom(address,address,uint256)":"42842e0e","safeTransferFrom(address,address,uint256,bytes)":"b88d4fde","setApprovalForAll(address,bool)":"a22cb465","setURI(uint256,string)":"862440e2","supportsInterface(bytes4)":"01ffc9a7","symbol()":"95d89b41","tokenURI(uint256)":"c87b56dd","transferFrom(address,address,uint256)":"23b872dd","transferOwnership(address)":"f2fde38b"},"id":62}