{"abi":[{"type":"function","name":"advanceEpoch","inputs":[{"name":"series","type":"uint96","internalType":"uint96"},{"name":"amount","type":"uint256","internalType":"uint256"}],"outputs":[],"stateMutability":"nonpayable"},{"type":"function","name":"epoch","inputs":[{"name":"maker","type":"address","internalType":"address"},{"name":"series","type":"uint96","internalType":"uint96"}],"outputs":[{"name":"","type":"uint256","internalType":"uint256"}],"stateMutability":"view"},{"type":"function","name":"epochEquals","inputs":[{"name":"maker","type":"address","internalType":"address"},{"name":"series","type":"uint256","internalType":"uint256"},{"name":"makerEpoch","type":"uint256","internalType":"uint256"}],"outputs":[{"name":"","type":"bool","internalType":"bool"}],"stateMutability":"view"},{"type":"function","name":"increaseEpoch","inputs":[{"name":"series","type":"uint96","internalType":"uint96"}],"outputs":[],"stateMutability":"nonpayable"},{"type":"event","name":"EpochIncreased","inputs":[{"name":"maker","type":"address","indexed":true,"internalType":"address"},{"name":"series","type":"uint256","indexed":false,"internalType":"uint256"},{"name":"newEpoch","type":"uint256","indexed":false,"internalType":"uint256"}],"anonymous":false},{"type":"error","name":"AdvanceEpochFailed","inputs":[]}],"bytecode":{"object":"0x6080806040523461001657610266908161001b8239f35b5f80fdfe60806040908082526004361015610014575f80fd5b5f3560e01c9081630d2c7c161461016457508063c3cf8043146100ed578063ce3d710a146100a85763fcea9e4e1461004a575f80fd5b346100a457806003193601126100a45761006261021a565b90602435916001600160601b03831683036100a4576020926001600160601b0360a01b9060a01b169060018060a01b0316175f525f8252805f20549051908152f35b5f80fd5b50346100a45760603660031901126100a4576020906100c561021a565b6001600160a01b031660243560a01b175f908152808352819020549051604435919091148152f35b50346100a45760203660031901126100a4577f099133aefc2c2d1e56f8ef3622ec8e80979a0713fc9c4e1497740efcf8099396610128610204565b916001600160601b0360a01b8360a01b1633175f525f602052805f2060018154018091556001600160601b0382519416845260208401523392a2005b82346100a457806003193601126100a45761017d610204565b90602435801580156101fa575b6101eb57907f099133aefc2c2d1e56f8ef3622ec8e80979a0713fc9c4e1497740efcf8099396916001600160601b0360a01b8460a01b1633175f525f602052815f20908154018091556001600160601b0382519416845260208401523392a2005b63555fbbbf60e01b8452600484fd5b5060ff811161018a565b600435906001600160601b03821682036100a457565b600435906001600160a01b03821682036100a45756fea26469706673582212203a598829e5ca1d5ef32dd1d0ab4bd83f3fb81dba8d8ea08452e1c68d7f65942864736f6c63430008170033","linkReferences":{}},"methodIdentifiers":{"advanceEpoch(uint96,uint256)":"0d2c7c16","epoch(address,uint96)":"fcea9e4e","epochEquals(address,uint256,uint256)":"ce3d710a","increaseEpoch(uint96)":"c3cf8043"},"id":67}